{
  "contractName": "Transit",
  "abi": [
    {
      "inputs": [
        {
          "internalType": "uint256",
          "name": "",
          "type": "uint256"
        }
      ],
      "name": "updates",
      "outputs": [
        {
          "internalType": "address",
          "name": "manager",
          "type": "address"
        },
        {
          "internalType": "string",
          "name": "location",
          "type": "string"
        },
        {
          "internalType": "string",
          "name": "batchIDmanDate",
          "type": "string"
        }
      ],
      "stateMutability": "view",
      "type": "function",
      "constant": true
    },
    {
      "inputs": [
        {
          "internalType": "uint256",
          "name": "transit_id",
          "type": "uint256"
        },
        {
          "internalType": "address",
          "name": "manager",
          "type": "address"
        },
        {
          "internalType": "string",
          "name": "location",
          "type": "string"
        },
        {
          "internalType": "string",
          "name": "batchIDmanDate",
          "type": "string"
        }
      ],
      "name": "update",
      "outputs": [],
      "stateMutability": "nonpayable",
      "type": "function"
    },
    {
      "inputs": [
        {
          "internalType": "uint256",
          "name": "transit_id",
          "type": "uint256"
        }
      ],
      "name": "fetch",
      "outputs": [
        {
          "internalType": "address",
          "name": "",
          "type": "address"
        },
        {
          "internalType": "string",
          "name": "",
          "type": "string"
        },
        {
          "internalType": "string",
          "name": "",
          "type": "string"
        },
        {
          "internalType": "address",
          "name": "",
          "type": "address"
        }
      ],
      "stateMutability": "view",
      "type": "function",
      "constant": true
    }
  ],
  "bytecode": "0x608060405234801561001057600080fd5b50610b95806100206000396000f3fe608060405234801561001057600080fd5b50600436106100415760003560e01c80637a33e3b014610046578063b4c2f72714610079578063bd225ddd146100ab575b600080fd5b610060600480360381019061005b91906104eb565b6100c7565b60405161007094939291906105e9565b60405180910390f35b610093600480360381019061008e91906104eb565b610288565b6040516100a29392919061063c565b60405180910390f35b6100c560048036038101906100c091906107e2565b6103e2565b005b60006060806000806000808781526020019081526020016000206040518060600160405290816000820160009054906101000a900473ffffffffffffffffffffffffffffffffffffffff1673ffffffffffffffffffffffffffffffffffffffff1673ffffffffffffffffffffffffffffffffffffffff168152602001600182018054610152906108b0565b80601f016020809104026020016040519081016040528092919081815260200182805461017e906108b0565b80156101cb5780601f106101a0576101008083540402835291602001916101cb565b820191906000526020600020905b8154815290600101906020018083116101ae57829003601f168201915b505050505081526020016002820180546101e4906108b0565b80601f0160208091040260200160405190810160405280929190818152602001828054610210906108b0565b801561025d5780601f106102325761010080835404028352916020019161025d565b820191906000526020600020905b81548152906001019060200180831161024057829003601f168201915b5050505050815250509050806000015181602001518260400151339450945094509450509193509193565b60006020528060005260406000206000915090508060000160009054906101000a900473ffffffffffffffffffffffffffffffffffffffff16908060010180546102d1906108b0565b80601f01602080910402602001604051908101604052809291908181526020018280546102fd906108b0565b801561034a5780601f1061031f5761010080835404028352916020019161034a565b820191906000526020600020905b81548152906001019060200180831161032d57829003601f168201915b50505050509080600201805461035f906108b0565b80601f016020809104026020016040519081016040528092919081815260200182805461038b906108b0565b80156103d85780601f106103ad576101008083540402835291602001916103d8565b820191906000526020600020905b8154815290600101906020018083116103bb57829003601f168201915b5050505050905083565b60405180606001604052808473ffffffffffffffffffffffffffffffffffffffff1681526020018381526020018281525060008086815260200190815260200160002060008201518160000160006101000a81548173ffffffffffffffffffffffffffffffffffffffff021916908373ffffffffffffffffffffffffffffffffffffffff16021790555060208201518160010190816104819190610a8d565b5060408201518160020190816104979190610a8d565b5090505050505050565b6000604051905090565b600080fd5b600080fd5b6000819050919050565b6104c8816104b5565b81146104d357600080fd5b50565b6000813590506104e5816104bf565b92915050565b600060208284031215610501576105006104ab565b5b600061050f848285016104d6565b91505092915050565b600073ffffffffffffffffffffffffffffffffffffffff82169050919050565b600061054382610518565b9050919050565b61055381610538565b82525050565b600081519050919050565b600082825260208201905092915050565b60005b83811015610593578082015181840152602081019050610578565b60008484015250505050565b6000601f19601f8301169050919050565b60006105bb82610559565b6105c58185610564565b93506105d5818560208601610575565b6105de8161059f565b840191505092915050565b60006080820190506105fe600083018761054a565b818103602083015261061081866105b0565b9050818103604083015261062481856105b0565b9050610633606083018461054a565b95945050505050565b6000606082019050610651600083018661054a565b818103602083015261066381856105b0565b9050818103604083015261067781846105b0565b9050949350505050565b61068a81610538565b811461069557600080fd5b50565b6000813590506106a781610681565b92915050565b600080fd5b600080fd5b7f4e487b7100000000000000000000000000000000000000000000000000000000600052604160045260246000fd5b6106ef8261059f565b810181811067ffffffffffffffff8211171561070e5761070d6106b7565b5b80604052505050565b60006107216104a1565b905061072d82826106e6565b919050565b600067ffffffffffffffff82111561074d5761074c6106b7565b5b6107568261059f565b9050602081019050919050565b82818337600083830152505050565b600061078561078084610732565b610717565b9050828152602081018484840111156107a1576107a06106b2565b5b6107ac848285610763565b509392505050565b600082601f8301126107c9576107c86106ad565b5b81356107d9848260208601610772565b91505092915050565b600080600080608085870312156107fc576107fb6104ab565b5b600061080a878288016104d6565b945050602061081b87828801610698565b935050604085013567ffffffffffffffff81111561083c5761083b6104b0565b5b610848878288016107b4565b925050606085013567ffffffffffffffff811115610869576108686104b0565b5b610875878288016107b4565b91505092959194509250565b7f4e487b7100000000000000000000000000000000000000000000000000000000600052602260045260246000fd5b600060028204905060018216806108c857607f821691505b6020821081036108db576108da610881565b5b50919050565b60008190508160005260206000209050919050565b60006020601f8301049050919050565b600082821b905092915050565b6000600883026109437fffffffffffffffffffffffffffffffffffffffffffffffffffffffffffffffff82610906565b61094d8683610906565b95508019841693508086168417925050509392505050565b6000819050919050565b600061098a610985610980846104b5565b610965565b6104b5565b9050919050565b6000819050919050565b6109a48361096f565b6109b86109b082610991565b848454610913565b825550505050565b600090565b6109cd6109c0565b6109d881848461099b565b505050565b5b818110156109fc576109f16000826109c5565b6001810190506109de565b5050565b601f821115610a4157610a12816108e1565b610a1b846108f6565b81016020851015610a2a578190505b610a3e610a36856108f6565b8301826109dd565b50505b505050565b600082821c905092915050565b6000610a6460001984600802610a46565b1980831691505092915050565b6000610a7d8383610a53565b9150826002028217905092915050565b610a9682610559565b67ffffffffffffffff811115610aaf57610aae6106b7565b5b610ab982546108b0565b610ac4828285610a00565b600060209050601f831160018114610af75760008415610ae5578287015190505b610aef8582610a71565b865550610b57565b601f198416610b05866108e1565b60005b82811015610b2d57848901518255600182019150602085019450602081019050610b08565b86831015610b4a5784890151610b46601f891682610a53565b8355505b6001600288020188555050505b50505050505056fea26469706673582212205d5cb7c7084545efcccd5bfce78c950b9145727f865112428edf48a0b37629d464736f6c63430008130033",
  "immutableReferences": {},
  "source": "// SPDX-License-Identifier: MIT\r\npragma solidity 0.8.19;\r\n\r\ncontract Transit {\r\n    struct Details{\r\n        address manager;\r\n        string location;\r\n        string batchIDmanDate;\r\n    }\r\n\r\n    mapping(uint => Details) public updates;\r\n    \r\n    function update(uint transit_id,address manager, string memory location, string memory batchIDmanDate) external {\r\n        updates[transit_id] = Details(manager, location, batchIDmanDate);\r\n    }\r\n\r\n    function fetch(uint transit_id) external view returns(address,string memory,string memory,address){\r\n        Details memory Detail = updates[transit_id];\r\n        return(Detail.manager,Detail.location,Detail.batchIDmanDate,msg.sender);\r\n    }\r\n}",
  "sourcePath": "C:\\Users\\Hp\\Projects\\blockchain\\VaxChain\\contracts\\transit.sol",
  "compiler": {
    "name": "solc",
    "version": "0.8.19+commit.7dd6d404.Emscripten.clang"
  },
  "schemaVersion": "3.4.16",
  "updatedAt": "2024-02-04T06:14:30.456Z",
  "networkType": "ethereum",
  "devdoc": {
    "kind": "dev",
    "methods": {},
    "version": 1
  },
  "userdoc": {
    "kind": "user",
    "methods": {},
    "version": 1
  }
}